:10000000D8C00000FDCF0000FBCF0000F9CF0000FA
:10001000F7CF0000F5CF0000F3CF0000F1CF0000D4
:10002000EFCF0000EDCF0000EBCF0000E9CF0000E4
:10003000E7CF0000E5CF0000E3CF0000E1CF0000F4
:10004000DFCF0000DDCF0000DBCF0000D9CF000004
:10005000D7CF0000D5CF0000D3CF0000D1CF000014
:06006000CFCF0000CDCF60
:1001B200BFEFBDBFB8E0BEBF6ED02F923F92B7B1C6
:1001C200B160B7B9B7B1B260B7B9B7B1B460B7B9D6
:1001D200B7B1B860B7B9B4B1B260B4B9B4B1B460D0
:1001E200B4B9B4B1B860B4B9BAB1BB7FBAB9B4B139
:1001F200B061B4B9B4B1B062B4B9B5B1BF7DB5B98B
:10020200B5B1BF7EB5B9B9B1B2FF0CC000910A0158
:1002120010910B010F5F1F4F00930A0110930B0106
:100222001801B5DFB9B1B3FF1AC020910A013091AC
:100232000B012150304020930A0130930B0100E062
:1002420010E02017310734F4B3E6B0930A01B0E0AE
:10025200B0930B0120900A0130900B0198DFB9B1E5
:10026200B4FF08C0B0E0B0930A01B0930B0122249E
:1002720033248DDF20900A0130900B015ADFC3CF67
:060282003F902F90FFCF1A
:10019000B9B1B2FD07C0B9B1B3FD04C0B9B1B4FD86
:1001A00001C006C03F922F92C5DF2F903F90F0CF45
:0201B0000895B0
:100134002F923F92B5B1B062B5B9B5B1BF7EB5B932
:100144003F922F924AE050E08101C8DF8B014AE0E0
:1001540050E0C4DF8C01180187DF2F903F90B5B1C8
:10016400BF7DB5B9B5B1B061B5B94AE050E0810120
:0E017400B5DF8C01180178DF3F902F900895C1
:10006C0000E011E0F101E00FF11F008100930C01A1
:10007C00B0910C01B6FBB8B1B3F9B8B9B0910C01A1
:10008C00B5FBB8B1B2F9B8B9B0910C01B4FBB8B1C9
:10009C00B1F9B8B9B0910C01B3FBB8B1B0F9B8B9BA
:1000AC00B0910C01B2FBB5B1B3F9B5B9B0910C017B
:1000BC00B1FBB5B1B2F9B5B9B0910C01B0FBB5B1AA
:1000CC00B1F9B5B912E80EED0A95F1F71A95E1F709
:0400DC000000089583
:1000E000C801BA0197FB092E07260AD077FD04D074
:1000F0000CD006D000201AF4709561957F4F0895BA
:10010000F6F7909581959F4F0895AA1BBB1B51E16F
:1001100007C0AA1FBB1FA617B70710F0A61BB70B77
:10012000881F991F5A95A9F780959095BC01CD011C
:040130000895089591
:0E018200EC2FFD2F05900D920197E1F70895E7
:10029800A0E0B1E0CCE8D2E08CE090E06EDF089519
:0A028C00014F12064C24200F00045D
:02029600000066
:00000001FF
